:100000000C942A000C9447000C9447000C94470071
:100010000C9453000C9447000C9447000C94470038
:100020000C9449000C9400010C9447000C94470078
:100030000C9447000C9447000C945D000C9447000E
:100040000C9447000C9447000C9447000C94470014
:100050000C94470011241FBECFE5D4E0DEBFCDBF16
:1000600010E0A0E6B0E0E0E5F2E002C005900D92FD
:10007000A038B107D9F710E0A0E8B0E001C01D92A8
:10008000A03CB107E1F70E9467000C9426010C9494
:1000900000001F920F920FB60F9211240F900FBE07
:1000A0000F901F9018951F920F920FB60F92112468
:1000B0000F900FBE0F901F9018951F920F920FB6C2
:1000C0000F9211240F900FBE0F901F90189599B7A3
:1000D000916099BF93B7956093BF12BE9FEF9ABB93
:1000E00097BB94BB91BB1BBA18BA15BA12BA48E8B1
:1000F00050E020E030E00CC09193E417F507E1F701
:100100002F5F3F4FAF01485F5F4F2830310549F007
:10011000F90163E0EE0FFF1F6A95E1F7E058FF4F2A
:10012000EBCF789448E850E020E030E00CC08193B9
:10013000E417F507E1F72F5F3F4FAF01485F5F4FCF
:100140002830310549F0F90193E0EE0FFF1F9A9531
:10015000E1F7E058FF4FEBCF8F5F893008F080E088
:1001600090E0E1E4FEE33197F1F700009F5F9F30FC
:10017000C1F7D8CFCF93DF9360E670E080E090E0E6
:1001800031C02C91222389F028BB1BBA12BA22B3AA
:1001900025BBEB01288130E04981E90148832081BA
:1001A00030E04181E90148830AC0000000000000FE
:1001B0000000000000001BBA12BA22B325BBC0E742
:1001C000D2E02197F1F700C0000018BA11963296DC
:1001D00020E0E038F207A9F601966E5F7F4F883085
:1001E000910559F0DC01E3E0AA0FBB1FEA95E1F7A6
:1001F000A058BF4FE0E7F0E0C4CFDF91CF91089562
:100200001F920F920FB60F9211242F933F934F938B
:100210005F936F937F938F939F93AF93BF93EF936E
:10022000FF93969A0E94BA009698FF91EF91BF9122
:10023000AF919F918F917F916F915F914F913F917E
:100240002F910F900FBE0F901F901895F894FFCF2D
:100250003B803B403B203B103B083B043B023B01C7
:10026000320232043510350835043502350132804A
:00000001FF
