:100000000C942A000C9447000C9447000C94470071
:100010000C9449000C9447000C9447000C94470042
:100020000C94D4000C94FA000C9447000C944700F4
:100030000C9447000C9447000C9453000C94470018
:100040000C9447000C9447000C9447000C94470014
:100050000C94470011241FBECFE5D4E0DEBFCDBF16
:1000600010E0A0E6B0E0E4E4F2E002C005900D92FA
:10007000A038B107D9F710E0A0E8B0E001C01D92A8
:10008000A03CB107E1F70E945D000C9420010C94A4
:1000900000001F920F920FB60F9211240F900FBE07
:1000A0000F901F9018951F920F920FB60F92112468
:1000B0000F900FBE0F901F90189589B7846089BF6D
:1000C0001FBC8EB582608EBD1DBC1CBC8FEF8ABB71
:1000D00087BB84BB81BB1BBA18BA15BA12BAF89495
:1000E00028E830E080E090E04FEF0BC04193E2174A
:1000F000F307E1F701969F01285F3F4F8830910594
:1001000049F0FC0153E0EE0FFF1F5A95E1F7E0586C
:10011000FF4FECCFC09AC19AC29AC39A7894FFCF8E
:10012000CF93DF9360E670E080E090E02FC02C91E9
:10013000222389F028BB1BBA12BA22B325BBEB01DC
:10014000288130E04981E9014883208130E0418104
:10015000E90148830AC00000000000000000000020
:1001600000001BBA12BA22B325BBC5E5D8E021971F
:10017000F1F718BA1196329620E0E038F207B9F696
:1001800001966E5F7F4F8830910559F0DC01E3E006
:10019000AA0FBB1FEA95E1F7A058BF4FE0E7F0E0D8
:1001A000C6CFDF91CF9108951F920F920FB60F9295
:1001B00011242F933F934F935F936F937F938F936C
:1001C0009F93AF93BF93EF93FF93969A0E949000F3
:1001D0009698FF91EF91BF91AF919F918F917F91F1
:1001E0006F915F914F913F912F910F900FBE0F90A4
:1001F0001F9018951F920F920FB60F9211242F93F4
:100200003F934F935F936F937F938F939F93AF939E
:10021000BF93EF93FF93F8940E9490007894FF911E
:10022000EF91BF91AF919F918F917F916F915F916E
:100230004F913F912F910F900FBE0F901F901895E7
:04024000F894FFCF60
:100244003B803B403B203B103B083B043B013B02D3
:100254003202320435103508350435023501328056
:00000001FF
