:100000000C9477010C949F010C949F010C949F0118
:100010000C949F010C949F010C949F010C949F01E0
:100020000C949F010C949F010C94E50C0C946C0DA6
:100030000C949F010C949F010C949F010C949F01C0
:100040000C949F010C949F010C949F010C949F01B0
:100050000C949F010C949F010C949F010C944907F0
:100060000C949F010C949F010C949F010C949F0190
:100070000C949F010C949F010C949F010C949F0180
:100080000C949F010C949F010C949F010C949F0170
:100090000C949F010C949F010C949F010C949F0160
:1000A0000C949F010C949F010C949F010000000090
:1000B000240027002A002D00300000000000250049
:1000C00028002B002E003100000000002300260035
:1000D00029002C002F000404040404030405020278
:1000E00002020403020202020606060606060404D1
:1000F00002020204040802011040804010204080E7
:10010000408008020401804020100201108010206D
:1001100040400000000200080E0000030401000B34
:1001200000000000000000000000000000000000CF
:10013000070605040100080A0B0C0D09080B000254
:10014000020201000904000001020200000524006F
:100150001001052401010104240206052406000102
:100160000705810310004009040100020A00000095
:100170000705020240000007058302400000040357
:1001800009042203410072006400750069006E00DA
:100190006F0020004C0065006F006E00610072006F
:1001A00064006F001803410072006400750069006C
:1001B0006E006F0020004C004C0043001201000252
:1001C00000000040412336800001010200011201BD
:1001D00000020200004041233680000101020001BC
:1001E00000C18081C105010902A1010901A10085A9
:1001F00001050919012903150025019503750181E0
:100200000295017505810305010930093109381589
:1002100081257F750895038106C0C005010906A1E7
:10022000018502050719E029E715002501750195EB
:10023000088102950175088103950675081500254A
:10024000650507190029658100C009040200010342
:100250000000000921010100012265000705840357
:1002600040000100000000000000002A2B280000D0
:10027000000000000000000000000000000000007E
:100280000000002C9EB4A0A1A2A434A6A7A5AE365F
:100290002D3738271E1F20212223242526B333B6CD
:1002A0002EB7B89F8485868788898A8B8C8D8E8FA0
:1002B000909192939495969798999A9B9C9D2F31A3
:1002C00030A3AD350405060708090A0B0C0D0E0F07
:1002D000101112131415161718191A1B1C1DAFB183
:1002E000B0B5000028047109210CEF0E210411247F
:1002F0001FBECFEFDAE0DEBFCDBF11E0A0E0B1E07E
:10030000ECE1F1E202C005900D92A036B107D9F7F9
:1003100012E0A0E6B1E001C01D92A131B107E1F702
:1003200012E0CCEED2E004C02297FE010E943B1006
:10033000C43ED107C9F70E943C0A0C9481100C946A
:100340000000CF93DF93BC018230910510F462E08E
:1003500070E0A0910F02B0911002ED01E0E0F0E03A
:1003600040E050E021C0888199818617970769F4A1
:100370008A819B81309719F09383828304C0909384
:10038000100280930F02FE0134C06817790738F419
:100390004115510519F08417950708F4AC01FE01C9
:1003A0008A819B819C01E9012097E9F6411551055D
:1003B000A9F1CA01861B970B049708F4BA01E0E083
:1003C000F0E02AC08D919C91119784179507F9F45C
:1003D0006417750781F412968D919C91139730974D
:1003E00019F09383828304C09093100280930F02CC
:1003F000FD0132964CC0CA01861B970BFD01E80F28
:10040000F91F6193719302978D939C9340C0FD01F6
:10041000828193819C01D9011097A1F680910D02F0
:1004200090910E02892B41F480913101909132011B
:1004300090930E0280930D0240913301509134014C
:100440004115510541F44DB75EB780912F01909150
:100450003001481B590B20910D0230910E02CA0148
:10046000821B930B8617970780F0AB014E5F5F4F9F
:100470008417950750F0420F531F50930E0240937C
:100480000D02F9016193719302C0E0E0F0E0CF0149
:10049000DF91CF910895CF93DF93009709F450C077
:1004A000EC0122971B821A82A0910F02B0911002D8
:1004B000109709F140E050E0AC17BD0708F1BB838D
:1004C000AA83FE0121913191E20FF31FAE17BF07FE
:1004D00079F48D919C911197280F391F2E5F3F4F12
:1004E0003983288312968D919C9113979B838A83DD
:1004F0004115510571F4D0931002C0930F0220C032
:1005000012968D919C911397AD01009711F0DC012B
:10051000D3CFFA01D383C28321913191E20FF31F2C
:10052000CE17DF0769F488819981280F391F2E5F64
:100530003F4FFA01318320838A819B819383828399
:10054000DF91CF910895A0E0B0E0E9EAF2E00C94E9
:100550004C106C01009729F4CB010E94A1016C01A1
:10056000C1C08EEF882E8FEF982E8C0C9D1C8601BB
:10057000060F171F0815190508F4B2C0F401A08171
:10058000B181A617B707B8F0A530B10508F4AAC025
:10059000CD0104978617970708F4A4C01297A61BED
:1005A000B70BF801A193B193D4016D937C93CF0164
:1005B0000E944B0297C07B01EA1AFB0AEEEFFFEFA5
:1005C000EE0EFF1E36016A0E7B1EC0910F02D09107
:1005D000100244245524AA24BB244AC0C615D705BA
:1005E000E1F5488159814E155F05B8F1CA010497BC
:1005F0008E159F05B0F41296A40FB51FF401B183B8
:10060000A0832A813B814114510431F0D201139619
:100610003C932E93129766C03093100220930F02E2
:1006200061C08A819B81F80193838283425050404C
:100630004E195F09518340834114510431F0D201B6
:1006400013961C930E93129704C0109310020093FC
:100650000F02F4017183608345C088819981A816D7
:10066000B90608F45C012E018A819B819C01E90195
:10067000209709F0B3CF80910D0290910E0286155C
:100680009705E9F4A616B706D0F42091330130910E
:1006900034012115310541F42DB73EB780912F016A
:1006A00090913001281B390B02171307C8F41093DF
:1006B0000E0200930D02D4016D937C9313C0CB0105
:1006C0000E94A101EC01009759F0F4014081518191
:1006D000B6010E949603C6010E944B026E0102C041
:1006E000CC24DD24C601CDB7DEB7E0E10C94681060
:1006F000FC0188279927E89421912032E9F32930D9
:1007000010F02E30C8F32B3241F02D3239F46894BA
:1007100004C00E94FC03820F911D219120532A30B6
:10072000C0F31EF4909581959F4F0895FB01DC0165
:1007300002C001900D9241505040D8F70895DC015D
:1007400001C06D9341505040E0F70895FB01DC017A
:1007500001900D920020E1F70895FB01DC0141506A
:10076000504030F08D910190801919F40020B9F7B4
:10077000881B990B0895FB01DC014150504048F063
:1007800001900D920020C9F701C01D9241505040C8
:10079000E0F70895009731F4DA018D919C9100976C
:1007A00009F40EC0DC01FB013D912191222319F0D7
:1007B0003217C9F3FACF332331F4DA011D921C92B8
:1007C0008827992708951197AF93BF93FB013D9117
:1007D0002191321771F4332321F488279927119737
:1007E00002C01E921196FA01A193B0839F918F913E
:1007F0000895222369F7EACF7AE0979F902D879F8B
:10080000802D910D112408958130910581F46F5F41
:100810007F4FB1F480E691E00E9430078CE891E0D0
:100820006CE370E04DE023E00E94FF050895892B02
:1008300039F46F5F7F4F21F48CE891E00E94EF055F
:10084000089580E090E06FEF7FEF0E940404089528
:1008500081E090E06FEF7FEF0E940404089589EE3D
:1008600091E060E071E00E945B0B0895AF92BF924F
:10087000CF92DF92EF92FF920F931F9300E611E069
:10088000C8010E9435060E947803D82EC8010E9434
:1008900035060E947803C82EC8010E9435060E94C2
:1008A0007803B82EC8010E9435060E947803A82E4E
:1008B0009CE8E92E91E0F92EC7016D2D70E04C2DDA
:1008C0002B2D0A2D0E94C604C7010E942C0509EE9B
:1008D00011E0C80164E171E00E94580BC8016D2D60
:1008E0004AE050E00E94280BC8016DE171E00E94CF
:1008F000580BC8016C2D4AE050E00E94280B88E29A
:10090000E82E81E0F82EC801B7010E94580BC801FB
:100910006B2D4AE050E00E94280BC801B7010E94ED
:10092000580BC8016A2D4AE050E00E943A0B1F9113
:100930000F91FF90EF90DF90CF90BF90AF90089510
:1009400080E691E00E94400608950F931F9389EE80
:1009500091E060E072EC0E94260900E611E0C80117
:100960006FE274E00E943106C8016BE271E046E379
:1009700054E00E94DE060CE811E0C8010E941C054C
:10098000C8010E942C051F910F9108950F93DC015F
:10099000522F8D919C9111976817790708F04AC0E2
:1009A00016962C911697222359F130E0842F90E06F
:1009B000FC01E29FC001E39F900DF29F900D112476
:1009C000892F990F990B482F852F90E0FC01E29F0A
:1009D000C001E39F900DF29F900D1124892F990F74
:1009E000990B582F802F90E0FC01E29FC001E39FFC
:1009F000900DF29F900D1124892F990F990B082FBC
:100A0000CB01880F991F860F971F1796ED91FC91C8
:100A10001897E80FF91F14968C919F012F5F3F4F95
:100A200080FF03C05083418302C040835183F9019A
:100A3000319600830F9108950F931F938C01FC0151
:100A4000858161E00E946608F801858160E00E946E
:100A5000F3081F910F910895EF92FF920F931F9348
:100A6000DF93CF93CDB7DEB727970FB6F894DEBFED
:100A70000FBECDBF8C01DC0117968D919C9118970C
:100A8000892B09F49FC00E949107F80121853285C6
:100A900043855485621B730B840B950B6233710580
:100AA0008105910580F3F894D80112968D919C915F
:100AB00013979F838E831796ED90FC901897F701FC
:100AC00081917F01898314968C9114971D96ED91E5
:100AD000FC911E971F969C9181FF30C08081892BCD
:100AE0008A838081909598239B838B818D8388E076
:100AF0008C836A815B8129813C814D818E819F81BC
:100B0000D701608327FD462F3A954083452F39F062
:100B1000221F00C000005083000000C0F2CF38E068
:100B20002D9150830000019761F7D8011E96FC9328
:100B3000EE931D9729833C834D833AC08081892B96
:100B40008A838081909598239B838B818C8388E016
:100B50008D836A815B8129813D814C818E819F815A
:100B6000D701608327FD462F00C000C0408300C02E
:100B700000C000C000C000C050830000452F3A955F
:100B800041F0221F000000C000C000C000C000C033
:100B9000E8CF38E02D9100C0508300C0019709F7DD
:100BA000D8011E96FC93EE931D9729833D834C83B9
:100BB0009F838E8378940E949107F80161877287E2
:100BC0008387948727960FB6F894DEBF0FBECDBFFC
:100BD000CF91DF911F910F91FF90EF900895CF93E8
:100BE000DF93EC018F819885009711F00E944B02F2
:100BF0008D8160E00E946608DF91CF910895CF93C8
:100C0000DF93EC0179836883CB01880F991F860FEE
:100C1000971F9B838A832C834D8318861F8250E005
:100C2000FA01EA52FF4FE491F0E0EE0FFF1FE654A5
:100C3000FF4F259134913E872D874C505F4FFA012D
:100C400044914F870E94A10198878F83009731F0CC
:100C50004A815B8160E070E00E949F03DF91CF9149
:100C60000895FC01748363830895BC01AC01465D63
:100C70005F4F80E090E06B5F7F4F0E94CA03089552
:100C80002F923F924F925F926F927F928F929F929C
:100C9000AF92BF92CF92DF92EF92FF920F931F938A
:100CA000CF93DF938C0128E0222E312C280E391EA1
:100CB00095E0492E512C400E511E8AE2682E712C6F
:100CC000600E711E57C089EE91E00E944E09F82E09
:100CD000D80117968C91F816B1F5C101B201A301A4
:100CE0000E94CA035C01009739F1F8018281882EC5
:100CF0009924CC24DD24EE24FF2418C0D801CD9102
:100D0000DC91CE0DDF1DC501BE0148E050E00E9420
:100D1000AD03EBE0F0E0EE0EFF1E009721F4E98555
:100D2000FA85099509C00894C11CD11CC814D904BE
:100D30002CF329C0C5010995D80118961C92189763
:100D400099961C9217C08F2D992787FD90950E9428
:100D50004110892B79F0F80181A5803258F4E80F11
:100D6000F11DF0868F5FD80199968C93F801E80FFA
:100D7000F11D108689EE91E00E94270918161906C8
:100D80000CF4A1CF08C0D8011396ED91FC911497F3
:100D9000309781F6D1CFDF91CF911F910F91FF90C6
:100DA000EF90DF90CF90BF90AF909F908F907F900B
:100DB0006F905F904F903F902F900895AF92BF92A9
:100DC000CF92DF92EF92FF920F931F938C016B01F2
:100DD0005A01DC0112968C91129790E001963BE04B
:100DE000E32EF12C8E9DB0018F9D700D9E9D700D98
:100DF00011248D919C910E94A3029C01F801918382
:100E0000808382814BE0849FC0011124820F931F55
:100E1000B60148E050E00E94BB03D80112968C91C5
:100E2000129790E0FC01EE9DC001EF9D900DFE9D9C
:100E3000900D1124ED91FC911197E80FF91FB286E6
:100E4000A18612968C9112978F5F12968C931F91A8
:100E50000F91FF90EF90DF90CF90BF90AF900895EB
:100E60000F931F938C01FC01118210821282148255
:100E700013828DE0878313A612A6C80105966DE242
:100E800071E00E94A603F801108611A61F910F9130
:100E900008951F920F920FB60F9211242F933F9334
:100EA0008F939F93AF93BF938091A0019091A101E5
:100EB000A091A201B091A3013091A4010196A11DBE
:100EC000B11D232F2D5F2D3720F02D570196A11D29
:100ED000B11D2093A4018093A0019093A101A09340
:100EE000A201B093A30180919C0190919D01A091DA
:100EF0009E01B0919F010196A11DB11D80939C019F
:100F000090939D01A0939E01B0939F01BF91AF91DB
:100F10009F918F913F912F910F900FBE0F901F9037
:100F200018959FB7F89420919C0130919D014091B4
:100F30009E0150919F0186B5A89B06C08F3F21F06E
:100F40002F5F3F4F4F4F5F4F9FBF542F432F322F85
:100F50002227280F311D411D511D82E0220F331F12
:100F6000441F551F8A95D1F7B901CA0108959B0105
:100F7000AC017FB7F89480919C0190919D01A09164
:100F80009E01B0919F0166B5A89B05C06F3F19F007
:100F90000196A11DB11D7FBFBA2FA92F982F8827B9
:100FA000860F911DA11DB11D62E0880F991FAA1F18
:100FB000BB1F6A95D1F7BC012DC0FFB7F894809193
:100FC0009C0190919D01A0919E01B0919F01E6B579
:100FD000A89B05C0EF3F19F00196A11DB11DFFBFF1
:100FE000BA2FA92F982F88278E0F911DA11DB11DF3
:100FF000E2E0880F991FAA1FBB1FEA95D1F7861B55
:10100000970B885E9340C8F22150304040405040DA
:1010100068517C4F211531054105510571F6089540
:10102000789484B5826084BD84B5816084BD85B5C3
:10103000826085BD85B5816085BDEEE6F0E080818A
:1010400081608083E1E8F0E01082808182608083AB
:10105000808181608083E0E8F0E08081816080832E
:10106000E1E9F0E08081826080838081816080831B
:10107000E0E9F0E0808181608083E1ECF0E0808154
:1010800084608083808182608083808181608083AE
:10109000E3ECF0E0808181608083E0ECF0E080812F
:1010A00082608083E2ECF0E0808181608083EAE707
:1010B000F0E0808184608083808182608083808191
:1010C000816080838081806880830895CF93DF93DF
:1010D000482F50E0CA018C509F4FFC0134914A5276
:1010E0005F4FFA018491882369F190E0880F991F7E
:1010F000FC01E455FF4FA591B491FC01E654FF4F6C
:10110000C591D491662351F42FB7F8948C91932F05
:10111000909589238C93888189230BC0623061F478
:101120002FB7F8948C91932F909589238C93888175
:10113000832B88832FBF06C09FB7F8948C91832B95
:101140008C939FBFDF91CF910895883071F18930E2
:1011500068F4823031F1833020F4813009F042C0EC
:101160001DC0833089F08430E9F512C08B3059F10D
:101170008C3028F48930E9F08A30A1F51EC08C301B
:1011800031F18E3079F529C0809180008F7703C0CE
:10119000809180008F7D80938000089584B58F7743
:1011A00002C084B58F7D84BD0895809190008F77B3
:1011B00007C0809190008F7D03C080919000877F51
:1011C0008093900008958091C0008F7703C0809134
:1011D000C0008F7D8093C00008958091C200877FFA
:1011E0008093C2000895FF920F931F93F62E482F0D
:1011F00050E0CA018E5E9E4FFC012491CA018C50C2
:101200009F4FFC0114914A525F4FFA010491002351
:10121000C9F0222319F0822F0E94A508E02FF0E0E8
:10122000EE0FFF1FE654FF4FA591B4919FB7F894BE
:10123000FF2021F48C911095812302C08C91812B89
:101240008C939FBF1F910F91FF9008950895209157
:10125000E5013091E6018091E7019091E801281BBA
:10126000390B2F733070C90108952091E501309139
:10127000E6018091E7019091E8012817390719F4F8
:101280002FEF3FEF09C0E091E701F091E801EB5546
:10129000FE4F8081282F30E0C90108952091E5019B
:1012A0003091E6018091E7019091E8012817390714
:1012B00019F42FEF3FEF13C0E091E701F091E8013F
:1012C000EB55FE4F20818091E7019091E801019656
:1012D0008F7390709093E8018093E70130E0C9012B
:1012E00008951092EC011092EB0188EE93E0A0E0DB
:1012F000B0E08093ED019093EE01A093EF01B093E5
:10130000F00183E491E09093EA018093E90108956C
:101310000F931F93DF93CF930F92CDB7DEB78C015E
:10132000698380913C01882369F083E0BE016F5F8F
:101330007F4F41E050E00E94400C1816190614F44B
:101340009C0107C081E090E0F8019383828320E054
:1013500030E0C9010F90CF91DF911F910F91089557
:1013600083E00E94170C0895CF93DF9312C082E0B0
:101370000E94A20B2FEF8F3F9207C9F0E091E50189
:10138000F091E601EB55FE4F8083D093E601C093C8
:10139000E501C091E501D091E6012196CF73D070AF
:1013A0008091E7019091E801C817D90701F7DF9113
:1013B000CF910895FC0180818E5F808380E86CE38B
:1013C00071E042E450E00E94BB0B0895FC01818172
:1013D0009081913A59F4813209F04CC080E065E384
:1013E00071E047E050E00E94BB0B42C0913209F02F
:1013F00041C0803239F485E391E067E070E00E94FB
:10140000FF0B36C0823209F035C0828180933C01E7
:101410008091350190913601A0913701B09138014A
:10142000805B9440A040B04019F580913C0180FD64
:1014300012C087E797E790930108809300082BE09C
:1014400088E190E00FB6F894A895809360000FBEF5
:10145000209360000DC088E10FB6F894809360007F
:10146000109260000FBEA89510920108109200081B
:1014700081E0089580E00895CF93DF930E941008E3
:101480008FEF91E00E94220C0E94A504C0E0D0E002
:101490000E94A0042097E1F30E940000F9CFCF92B0
:1014A000DF92EF92FF920F931F93CF93DF937C0114
:1014B0006B018A01C0E0D0E00FC0D6016D916D01D3
:1014C000D701ED91FC910190F081E02DC7010995C4
:1014D000C80FD91F015010400115110571F7CE0139
:1014E000DF91CF911F910F91FF90EF90DF90CF9000
:1014F0000895EF92FF920F931F938C01DC01ED9101
:10150000FC910190F081E02D6DE009957C01D801FE
:10151000ED91FC910190F081E02DC8016AE0099500
:101520009C012E0D3F1DC9011F910F91FF90EF905F
:101530000895CF93DF93EC016115710519F420E054
:1015400030E00FC0DB010D900020E9F71197A61BDA
:10155000B70BE881F9810280F381E02DAD01099597
:101560009C01C901DF91CF9108954F925F927F92C4
:101570008F929F92AF92BF92CF92DF92EF92FF92A3
:101580000F931F93DF93CF93CDB7DEB7A1970FB61D
:10159000F894DEBF0FBECDBF2C01742ECB012230DC
:1015A00008F42AE019A231E2C32ED12CCC0EDD1EA4
:1015B000822E9924AA24BB24672D752FA50194019E
:1015C0000E94171079018A01C801B701A501940191
:1015D0000E94F80F472D461B0894C108D1084A30D5
:1015E00014F4405D01C0495CF6014083E114F1044C
:1015F0000105110521F07E2C5F2DC801DDCFC20150
:10160000B6010E94990AA1960FB6F894DEBF0FBEEC
:10161000CDBFCF91DF911F910F91FF90EF90DF90A1
:10162000CF90BF90AF909F908F907F905F904F90A2
:101630000895DC012115310541F4ED91FC910190F3
:10164000F081E02D642F099508950E94B50A089550
:10165000EF92FF920F931F939A01E62EFF2400E072
:1016600010E0B801A7010E94190B1F910F91FF9084
:10167000EF900895CF92DF92EF92FF920F931F9316
:101680006C01E62E9A01FF2400E010E0B801A701EA
:101690000E94190B8C01C6010E94790A080F191FBC
:1016A000C8011F910F91FF90EF90DF90CF900895A8
:1016B0000E94990A0895EF92FF920F931F937C0165
:1016C0000E94990A8C01C7010E94790A080F191F0C
:1016D000C8011F910F91FF90EF900895282F8091DE
:1016E000F9018823C1F057FF1AC015C028989093BC
:1016F000F8018091F1008193E217F307B9F74115E2
:10170000510539F08091F200882319F48BE680931B
:10171000E800AFBF02C04FEF5FEFCA010895AFB757
:10172000F89427702093E9008091F200282F30E090
:10173000241735070CF4A901FB019B01240F311D6F
:1017400094E6DACFDF93CF930F92CDB7DEB7BE0129
:101750006F5F7F4F41E050E00E946E0B019719F0E0
:101760002FEF3FEF03C08981282F30E0C9010F9090
:10177000CF91DF910895FF920F931F93F82E142FAE
:10178000052F4091FC015091FD01212F302FC901FF
:10179000DC01FB016EEF29C0F7FE02C0949101C08D
:1017A00090812091FA013091FB0124173507ACF4A8
:1017B0008091E8008570E1F38091E80082FF03C02A
:1017C0002FEF3FEF17C09093F100C90101968F737F
:1017D0009070892B11F46093E8002F5F3F4F309396
:1017E000FB012093FA01119731961097A9F6812FEA
:1017F000902F9C01C9011F910F91FF9008959C01AA
:101800008091E80082FFFCCFF901260F311D03C053
:101810008091F1008193E217F307D1F7289884E6CD
:101820008093F8018BEF8093E800CB0108958093BB
:10183000E9008091F200882319F08AE38093E800A0
:10184000089508951092F90181E08093D70080EA0D
:101850008093D80082E189BD09B400FEFDCF61E02C
:1018600070E080E090E00E94B70780E98093D800A4
:101870008CE08093E2001092E000559A209A08953F
:101880005F926F927F928F929F92AF92BF92CF9210
:10189000DF92EF92FF920F931F93CF93DF93E82E87
:1018A000842E752E8091F901882371F18B01242FEC
:1018B000352FC901EC017AEFF72E67E0962E9E20B6
:1018C00050E4552E8E2D90E040E2A42EB12CA8229B
:1018D000B9223AE3632E20E4C22ED12CC822D922A9
:1018E00058C09FB7F8949092E9008091E80085FD78
:1018F00002C020E004C08091F200252D281B9FBF6C
:10190000222361F4FA9419F42FEF3FEF4DC061E008
:1019100070E080E090E00E94B7073BC0822F90E02B
:10192000C817D9070CF42C2FC21BD1094FB7F89454
:101930009092E900A114B10421F406C01092F100C4
:1019400021502223D9F719C0E7FC03C0F801922FD8
:1019500010C0C801322F06C0FC010196E491E0934B
:10196000F10031503323C1F706C081918093F1001B
:1019700091509923D1F7020F111D8091E80085FF46
:1019800005C0209729F4C114D10411F06092E80039
:101990004FBF209709F0A5CF5D9884E68093F701AB
:1019A000282D372DC9019C01C901DF91CF911F91CD
:1019B0000F91FF90EF90DF90CF90BF90AF909F90EE
:1019C0008F907F906F905F9008951F920F920FB647
:1019D0000F9211242F933F934F935F936F937F93B5
:1019E0008F939F93AF93BF93EF93FF938091E10009
:1019F0001092E100982F83FF0FC01092E90081E060
:101A00008093EB001092EC0082E38093ED00109243
:101A1000F90188E08093F00092FF34C083E0809366
:101A2000E9008091F200882319F08AE38093E800AE
:101A30008FB7F89492E09093E9009091F2008FBFF5
:101A4000992321F089EE91E00E94B4098091F70179
:101A5000882351F08091F70181508093F7018091A4
:101A6000F701882309F45D9A8091F801882351F0E9
:101A70008091F80181508093F8018091F8018823CA
:101A800009F4289AFF91EF91BF91AF919F918F91A7
:101A90007F916F915F914F913F912F910F900FBE6A
:101AA0000F901F9018950F931F93DF93CF930F9272
:101AB000CDB7DEB719828E010F5F1F4FC8010E949C
:101AC000DA09C8010E94EC0F898190E00F90CF9154
:101AD000DF911F910F9108951F920F920FB60F92F1
:101AE0001124EF92FF921F932F933F934F935F9395
:101AF0006F937F938F939F93AF93BF93EF93FF93D6
:101B0000DF93CF93CDB7DEB76197DEBFCDBF109225
:101B1000E9008091E80083FF0FC1FE0131969E012C
:101B2000275F3F4F03C08091F1008193E217F307D5
:101B3000D1F7289884E68093F80182EF8093E8003B
:101B4000998197FF05C08091E80080FFFCCF03C01A
:101B50008EEF8093E800292F30E0C90180769070E5
:101B6000892B09F0C2C08A81882329F41092F100E0
:101B70001092F100D6C0813009F4D3C0833009F44B
:101B8000D0C0853049F48091E80080FFFCCF8B8184
:101B900080688093E300C5C0863009F07CC01C815A
:101BA000EF80F8841230C1F51092E9001092FB0129
:101BB0001092FA011092FD011092FC010E94530D47
:101BC00099E0FE013996DF01292F1D922A95E9F748
:101BD00099871A8791E09E8790E8988B9AEF998B66
:101BE0002091FA013091FB01275F3F4F3C872B8703
:101BF0008D871092E9001092FB011092FA01F09289
:101C0000FD01E092FC0180E0BF0149E050E00E944C
:101C1000BB0B0E94530D85C01092E9001092FB018E
:101C20001092FA01F092FD01E092FC01123241F4AF
:101C300082E290E00E94E40F892B09F476C071C023
:101C4000113079F488E0E816F10419F481E080930A
:101C5000FE018091FE01882309F06BC0ECEBF1E0FE
:101C600013C0133009F061C08B81882319F4EEE7AB
:101C7000F1E00AC0823019F4E2E8F1E005C08130F9
:101C800009F053C0E4EAF1E0449180E8BF0150E07C
:101C90000E94BB0B46C0873009F447C0883021F44E
:101CA00081E08093F1003DC08930D9F52370307018
:101CB000232BD9F5E1EEF1E091E031E026E39093BA
:101CC000E9003093EB0084918093EC002093ED00C9
:101CD0009F5F3196953099F78EE78093EA001092D6
:101CE000EA008B818093F9011CC08F819885109246
:101CF000E9001092FB011092FA019093FD0180938C
:101D0000FC018D81882329F4CE0101960E94E60909
:101D100006C0823051F4CE0101960E94B50E882390
:101D200021F08EEF8093E80007C081E28093EB0002
:101D300003C0EEECF1E0A8CF6196DEBFCDBFCF913E
:101D4000DF91FF91EF91BF91AF919F918F917F9123
:101D50006F915F914F913F912F911F91FF90EF9065
:101D60000F900FBE0F901F901895FC0191818081FC
:101D7000813A31F4913089F080E0933089F40DC0DC
:101D8000813269F49B3021F4828180933D0105C04A
:101D90009A3029F4828180933E0181E0089580E0A9
:101DA0000895EF92FF920F931F938C01E62EDC01B2
:101DB000ED91FC910480F581E02D0995F82ED80174
:101DC000ED91FC910680F781E02DC8016E2D0995FB
:101DD0008F2D90E01F910F91FF90EF90089510923A
:101DE0000002109204021092030285E591E09093A4
:101DF0000202809301020895EF92FF920F931F93C6
:101E0000DF93CF930F92CDB7DEB789838B017A0131
:101E100084E0BE016F5F7F4F41E050E00E94400CC4
:101E200084E4B801A7010E94400C0F90CF91DF918C
:101E30001F910F91FF90EF90089582E048E050E0ED
:101E40000E94FC0E0895FC011682178210861186EE
:101E50001286138614823496BF010E941D0F0895C6
:101E6000DC01683810F0685829C0E62FF0E067FF01
:101E700013C0E058F04081E090E002C0880F991F45
:101E8000EA95E2F7809514962C91149728231496DE
:101E90002C93149760E012C0ED59FD4F64916623B6
:101EA00019F420E030E01DC067FF08C014968C9143
:101EB00014978D7F14968C9314976F77FD0190E0A3
:101EC000662321F08681861709F416829F5F31967A
:101ED0009630B1F7CD011496BD010E941D0F21E08F
:101EE00030E0C9010895CF93DF93DC01683810F02A
:101EF000685825C0E62FF0E067FF12C0E058F040B8
:101F000081E090E002C0880F991FEA95E2F71496ED
:101F10002C911497282B14962C93149760E00FC0E3
:101F2000ED59FD4F64916623D9F167FF08C01496FF
:101F30008C911497826014968C9314976F771696F1
:101F40008C9116978617A9F117968C91179786177B
:101F500081F118968C911897861759F119968C91E2
:101F60001997861731F11A968C911A97861709F1ED
:101F70001B968C911B978617E1F0ED01E0E0F0E0F5
:101F80009E2F8E81882321F4EA0FFB1F668306C0F3
:101F90009F5F31962196E630F10591F7963049F42E
:101FA00081E090E013969C938E93129720E030E0AE
:101FB00007C0CD011496BD010E941D0F21E030E045
:101FC000C901DF91CF91089580E865EE71E045E6A3
:101FD00050E00E94BB0B0895FC0180818F5F8083DD
:101FE00080E86AE472E049E150E00E94BB0B08958A
:101FF000629FD001739FF001829FE00DF11D649FED
:10200000E00DF11D929FF00D839FF00D749FF00D78
:10201000659FF00D9927729FB00DE11DF91F639F19
:10202000B00DE11DF91FBD01CF0111240895A1E2FA
:102030001A2EAA1BBB1BFD010DC0AA1FBB1FEE1F42
:10204000FF1FA217B307E407F50720F0A21BB30B8D
:10205000E40BF50B661F771F881F991F1A9469F709
:1020600060957095809590959B01AC01BD01CF0165
:102070000895EE0FFF1F0590F491E02D0994803232
:1020800009F0911104C080528F55E0F70895992707
:10209000882708952F923F924F925F926F927F927E
:1020A0008F929F92AF92BF92CF92DF92EF92FF9268
:1020B0000F931F93CF93DF93CDB7DEB7CA1BDB0B14
:1020C0000FB6F894DEBF0FBECDBF09942A883988B9
:1020D00048885F846E847D848C849B84AA84B984C0
:1020E000C884DF80EE80FD800C811B81AA81B981CC
:1020F000CE0FD11D0FB6F894DEBF0FBECDBFED01E0
:10210000089512E0CCEED2E004C0FE010E943B1024
:0C2110002296CE3ED107C9F7F894FFCF0D
:10211C00436F6D6D616E64206E6F7420666F756EAB
:10212C0064202100536574206C6564200020746F5A
:10213C0020636F6C6F7220002C20006C002000203C
:10214C00001102000000E10000000000000101008D
:10215C0000000088094F0A27094E093509B009B457
:10216C000900000000D10E4F0A730F300F230F002F
:00000001FF
